{
  "_format": "hh-sol-artifact-1",
  "contractName": "Transactions",
  "sourceName": "contracts/Transactions.sol",
  "abi": [
    {
      "anonymous": false,
      "inputs": [
        {
          "indexed": false,
          "internalType": "address",
          "name": "from",
          "type": "address"
        },
        {
          "indexed": false,
          "internalType": "address",
          "name": "receiver",
          "type": "address"
        },
        {
          "indexed": false,
          "internalType": "uint256",
          "name": "amount",
          "type": "uint256"
        },
        {
          "indexed": false,
          "internalType": "uint256",
          "name": "timestamp",
          "type": "uint256"
        }
      ],
      "name": "Transfer",
      "type": "event"
    },
    {
      "inputs": [
        {
          "internalType": "address payable",
          "name": "receiver",
          "type": "address"
        },
        {
          "internalType": "uint256",
          "name": "amount",
          "type": "uint256"
        }
      ],
      "name": "addToBlockChain",
      "outputs": [],
      "stateMutability": "nonpayable",
      "type": "function"
    },
    {
      "inputs": [],
      "name": "getTransactionsCount",
      "outputs": [
        {
          "internalType": "uint256",
          "name": "",
          "type": "uint256"
        }
      ],
      "stateMutability": "view",
      "type": "function"
    },
    {
      "inputs": [
        {
          "internalType": "uint256",
          "name": "startIndex",
          "type": "uint256"
        },
        {
          "internalType": "uint256",
          "name": "pageSize",
          "type": "uint256"
        }
      ],
      "name": "getTransactionsPageAndTotalPages",
      "outputs": [
        {
          "components": [
            {
              "internalType": "address",
              "name": "sender",
              "type": "address"
            },
            {
              "internalType": "address",
              "name": "receiver",
              "type": "address"
            },
            {
              "internalType": "uint256",
              "name": "amount",
              "type": "uint256"
            },
            {
              "internalType": "uint256",
              "name": "timestamp",
              "type": "uint256"
            }
          ],
          "internalType": "struct Transactions.TransferStruct[]",
          "name": "",
          "type": "tuple[]"
        },
        {
          "internalType": "uint256",
          "name": "totalPages",
          "type": "uint256"
        }
      ],
      "stateMutability": "view",
      "type": "function"
    }
  ],
  "bytecode": "0x6080604052348015600f57600080fd5b50610a718061001f6000396000f3fe608060405234801561001057600080fd5b50600436106100415760003560e01c806301c40d72146100465780634434bd1114610077578063578cb8f914610093575b600080fd5b610060600480360381019061005b91906105c7565b6100b1565b60405161006e92919061076a565b60405180910390f35b610091600480360381019061008c91906107d8565b6103b9565b005b61009b61052f565b6040516100a89190610818565b60405180910390f35b6060600080830361011c57600067ffffffffffffffff8111156100d7576100d6610833565b5b60405190808252806020026020018201604052801561011057816020015b6100fd610538565b8152602001906001900390816100f55790505b506000915091506103b2565b606483111561012a57606492505b60005484106101b657826001846000546101449190610891565b61014e91906108c5565b6101589190610928565b9050600067ffffffffffffffff81111561017557610174610833565b5b6040519080825280602002602001820160405280156101ae57816020015b61019b610538565b8152602001906001900390816101935790505b5091506103b2565b600060016000546101c791906108c5565b9050600085826101d791906108c5565b905060006001826101e89190610891565b90506000869050818111156101fb578190505b60008167ffffffffffffffff81111561021757610216610833565b5b60405190808252806020026020018201604052801561025057816020015b61023d610538565b8152602001906001900390816102355790505b50905060005b82811015610381576001818661026c91906108c5565b8154811061027d5761027c610959565b5b90600052602060002090600402016040518060800160405290816000820160009054906101000a900473ffffffffffffffffffffffffffffffffffffffff1673ffffffffffffffffffffffffffffffffffffffff1673ffffffffffffffffffffffffffffffffffffffff1681526020016001820160009054906101000a900473ffffffffffffffffffffffffffffffffffffffff1673ffffffffffffffffffffffffffffffffffffffff1673ffffffffffffffffffffffffffffffffffffffff1681526020016002820154815260200160038201548152505082828151811061036957610368610959565b5b60200260200101819052508080600101915050610256565b50876001896000546103939190610891565b61039d91906108c5565b6103a79190610928565b955080965050505050505b9250929050565b60016000808282546103cb9190610891565b92505081905550600160405180608001604052803373ffffffffffffffffffffffffffffffffffffffff1681526020018473ffffffffffffffffffffffffffffffffffffffff16815260200183815260200142815250908060018154018082558091505060019003906000526020600020906004020160009091909190915060008201518160000160006101000a81548173ffffffffffffffffffffffffffffffffffffffff021916908373ffffffffffffffffffffffffffffffffffffffff16021790555060208201518160010160006101000a81548173ffffffffffffffffffffffffffffffffffffffff021916908373ffffffffffffffffffffffffffffffffffffffff160217905550604082015181600201556060820151816003015550507f9ed053bb818ff08b8353cd46f78db1f0799f31c9e4458fdb425c10eccd2efc443383834260405161052394939291906109f6565b60405180910390a15050565b60008054905090565b6040518060800160405280600073ffffffffffffffffffffffffffffffffffffffff168152602001600073ffffffffffffffffffffffffffffffffffffffff16815260200160008152602001600081525090565b600080fd5b6000819050919050565b6105a481610591565b81146105af57600080fd5b50565b6000813590506105c18161059b565b92915050565b600080604083850312156105de576105dd61058c565b5b60006105ec858286016105b2565b92505060206105fd858286016105b2565b9150509250929050565b600081519050919050565b600082825260208201905092915050565b6000819050602082019050919050565b600073ffffffffffffffffffffffffffffffffffffffff82169050919050565b600061065e82610633565b9050919050565b61066e81610653565b82525050565b61067d81610591565b82525050565b6080820160008201516106996000850182610665565b5060208201516106ac6020850182610665565b5060408201516106bf6040850182610674565b5060608201516106d26060850182610674565b50505050565b60006106e48383610683565b60808301905092915050565b6000602082019050919050565b600061070882610607565b6107128185610612565b935061071d83610623565b8060005b8381101561074e57815161073588826106d8565b9750610740836106f0565b925050600181019050610721565b5085935050505092915050565b61076481610591565b82525050565b6000604082019050818103600083015261078481856106fd565b9050610793602083018461075b565b9392505050565b60006107a582610633565b9050919050565b6107b58161079a565b81146107c057600080fd5b50565b6000813590506107d2816107ac565b92915050565b600080604083850312156107ef576107ee61058c565b5b60006107fd858286016107c3565b925050602061080e858286016105b2565b9150509250929050565b600060208201905061082d600083018461075b565b92915050565b7f4e487b7100000000000000000000000000000000000000000000000000000000600052604160045260246000fd5b7f4e487b7100000000000000000000000000000000000000000000000000000000600052601160045260246000fd5b600061089c82610591565b91506108a783610591565b92508282019050808211156108bf576108be610862565b5b92915050565b60006108d082610591565b91506108db83610591565b92508282039050818111156108f3576108f2610862565b5b92915050565b7f4e487b7100000000000000000000000000000000000000000000000000000000600052601260045260246000fd5b600061093382610591565b915061093e83610591565b92508261094e5761094d6108f9565b5b828204905092915050565b7f4e487b7100000000000000000000000000000000000000000000000000000000600052603260045260246000fd5b61099181610653565b82525050565b6000819050919050565b60006109bc6109b76109b284610633565b610997565b610633565b9050919050565b60006109ce826109a1565b9050919050565b60006109e0826109c3565b9050919050565b6109f0816109d5565b82525050565b6000608082019050610a0b6000830187610988565b610a1860208301866109e7565b610a25604083018561075b565b610a32606083018461075b565b9594505050505056fea26469706673582212209a8dc7a8a1795d4317b878d251a8b85b642417d8ad305adb05f9c38c2992193164736f6c634300081c0033",
  "linkReferences": {},
  "deployedLinkReferences": {}
}